{
  "contractName": "ExtraStorage",
  "abi": [
    {
      "inputs": [
        {
          "internalType": "uint256",
          "name": "_input",
          "type": "uint256"
        }
      ],
      "name": "mul",
      "outputs": [
        {
          "internalType": "uint256",
          "name": "",
          "type": "uint256"
        }
      ],
      "stateMutability": "pure",
      "type": "function"
    },
    {
      "inputs": [],
      "name": "retrieve",
      "outputs": [
        {
          "internalType": "uint256",
          "name": "",
          "type": "uint256"
        }
      ],
      "stateMutability": "view",
      "type": "function"
    },
    {
      "inputs": [
        {
          "internalType": "uint256",
          "name": "_favoriteNumber",
          "type": "uint256"
        }
      ],
      "name": "store",
      "outputs": [],
      "stateMutability": "nonpayable",
      "type": "function"
    }
  ],
  "bytecode": "0x608060405234801561001057600080fd5b5061024a806100206000396000f3fe608060405234801561001057600080fd5b50600436106100415760003560e01c8063131e2f18146100465780632e64cec1146100765780636057361d14610094575b600080fd5b610060600480360381019061005b9190610134565b6100b0565b60405161006d9190610170565b60405180910390f35b61007e6100c5565b60405161008b9190610170565b60405180910390f35b6100ae60048036038101906100a99190610134565b6100ce565b005b600081826100be91906101ba565b9050919050565b60008054905090565b6005816100db91906101ba565b6000819055506100ec6000546100ef565b50565b8060008190555050565b600080fd5b6000819050919050565b610111816100fe565b811461011c57600080fd5b50565b60008135905061012e81610108565b92915050565b60006020828403121561014a576101496100f9565b5b60006101588482850161011f565b91505092915050565b61016a816100fe565b82525050565b60006020820190506101856000830184610161565b92915050565b7f4e487b7100000000000000000000000000000000000000000000000000000000600052601160045260246000fd5b60006101c5826100fe565b91506101d0836100fe565b9250817fffffffffffffffffffffffffffffffffffffffffffffffffffffffffffffffff04831182151516156102095761020861018b565b5b82820290509291505056fea2646970667358221220a73b68249c4e3e6ef1e4d4d1d37c81674c30a30747a957a56afe3f22c51dd36464736f6c634300080e0033",
  "immutableReferences": {},
  "source": "// SPDX-License-Identifier: MIT\npragma solidity >= 0.4.24 <0.9.0;\n\nimport \"./SimpleStorage.sol\";\n\n// Example of an innheritance contract\ncontract ExtraStorage is SimpleStorage{\n    function store(uint256 _favoriteNumber) public override{\n        favoriteNumber = _favoriteNumber * 5; // Multiply the number by 5\n        // call the store function of the parent contract\n        SimpleStorage.store(favoriteNumber);\n    }\n}",
  "sourcePath": "/home/awadallak/dev/apps/go/src/github.com/aawadallak/blockchain/contracts/storages/extrastorage.sol",
  "compiler": {
    "name": "solc",
    "version": "0.8.14+commit.80d49f37.Emscripten.clang"
  },
  "schemaVersion": "3.4.7",
  "updatedAt": "2022-06-05T19:21:31.455Z",
  "devdoc": {
    "kind": "dev",
    "methods": {},
    "version": 1
  },
  "userdoc": {
    "kind": "user",
    "methods": {},
    "version": 1
  }
}