{
  "contractName": "FactoryPattern",
  "abi": [
    {
      "inputs": [
        {
          "internalType": "uint256",
          "name": "",
          "type": "uint256"
        }
      ],
      "name": "simpleStructArray",
      "outputs": [
        {
          "internalType": "contract SimpleStorage",
          "name": "",
          "type": "address"
        }
      ],
      "stateMutability": "view",
      "type": "function"
    },
    {
      "inputs": [],
      "name": "createSimpleStorageContract",
      "outputs": [],
      "stateMutability": "nonpayable",
      "type": "function"
    },
    {
      "inputs": [
        {
          "internalType": "uint256",
          "name": "_simpleStorageIndex",
          "type": "uint256"
        },
        {
          "internalType": "uint256",
          "name": "_simpleStorageNumber",
          "type": "uint256"
        }
      ],
      "name": "storageFStore",
      "outputs": [],
      "stateMutability": "nonpayable",
      "type": "function"
    },
    {
      "inputs": [
        {
          "internalType": "uint256",
          "name": "_simpleStorageIndex",
          "type": "uint256"
        }
      ],
      "name": "storageFSRetrieve",
      "outputs": [
        {
          "internalType": "uint256",
          "name": "",
          "type": "uint256"
        }
      ],
      "stateMutability": "view",
      "type": "function"
    }
  ],
  "bytecode": "0x608060405234801561001057600080fd5b50610774806100206000396000f3fe608060405234801561001057600080fd5b506004361061004c5760003560e01c80631dda654114610051578063e4c1198d1461005b578063f261851114610077578063f87c9e67146100a7575b600080fd5b6100596100d7565b005b61007560048036038101906100709190610353565b61016a565b005b610091600480360381019061008c9190610393565b610217565b60405161009e91906103cf565b60405180910390f35b6100c160048036038101906100bc9190610393565b6102cc565b6040516100ce9190610469565b60405180910390f35b60006040516100e59061030b565b604051809103906000f080158015610101573d6000803e3d6000fd5b5090506000819080600181540180825580915050600190039060005260206000200160009091909190916101000a81548173ffffffffffffffffffffffffffffffffffffffff021916908373ffffffffffffffffffffffffffffffffffffffff16021790555050565b6000828154811061017e5761017d610484565b5b9060005260206000200160009054906101000a900473ffffffffffffffffffffffffffffffffffffffff1673ffffffffffffffffffffffffffffffffffffffff16636057361d826040518263ffffffff1660e01b81526004016101e191906103cf565b600060405180830381600087803b1580156101fb57600080fd5b505af115801561020f573d6000803e3d6000fd5b505050505050565b600080828154811061022c5761022b610484565b5b9060005260206000200160009054906101000a900473ffffffffffffffffffffffffffffffffffffffff1673ffffffffffffffffffffffffffffffffffffffff16632e64cec16040518163ffffffff1660e01b8152600401602060405180830381865afa1580156102a1573d6000803e3d6000fd5b505050506040513d601f19601f820116820180604052508101906102c591906104c8565b9050919050565b600081815481106102dc57600080fd5b906000526020600020016000915054906101000a900473ffffffffffffffffffffffffffffffffffffffff1681565b610249806104f683390190565b600080fd5b6000819050919050565b6103308161031d565b811461033b57600080fd5b50565b60008135905061034d81610327565b92915050565b6000806040838503121561036a57610369610318565b5b60006103788582860161033e565b92505060206103898582860161033e565b9150509250929050565b6000602082840312156103a9576103a8610318565b5b60006103b78482850161033e565b91505092915050565b6103c98161031d565b82525050565b60006020820190506103e460008301846103c0565b92915050565b600073ffffffffffffffffffffffffffffffffffffffff82169050919050565b6000819050919050565b600061042f61042a610425846103ea565b61040a565b6103ea565b9050919050565b600061044182610414565b9050919050565b600061045382610436565b9050919050565b61046381610448565b82525050565b600060208201905061047e600083018461045a565b92915050565b7f4e487b7100000000000000000000000000000000000000000000000000000000600052603260045260246000fd5b6000815190506104c281610327565b92915050565b6000602082840312156104de576104dd610318565b5b60006104ec848285016104b3565b9150509291505056fe608060405234801561001057600080fd5b50610229806100206000396000f3fe608060405234801561001057600080fd5b50600436106100415760003560e01c8063131e2f18146100465780632e64cec1146100765780636057361d14610094575b600080fd5b610060600480360381019061005b9190610113565b6100b0565b60405161006d919061014f565b60405180910390f35b61007e6100c5565b60405161008b919061014f565b60405180910390f35b6100ae60048036038101906100a99190610113565b6100ce565b005b600081826100be9190610199565b9050919050565b60008054905090565b8060008190555050565b600080fd5b6000819050919050565b6100f0816100dd565b81146100fb57600080fd5b50565b60008135905061010d816100e7565b92915050565b600060208284031215610129576101286100d8565b5b6000610137848285016100fe565b91505092915050565b610149816100dd565b82525050565b60006020820190506101646000830184610140565b92915050565b7f4e487b7100000000000000000000000000000000000000000000000000000000600052601160045260246000fd5b60006101a4826100dd565b91506101af836100dd565b9250817fffffffffffffffffffffffffffffffffffffffffffffffffffffffffffffffff04831182151516156101e8576101e761016a565b5b82820290509291505056fea2646970667358221220cc5cfee2dc895efb29dafa4a214c98333cfd0fa6dbe95650d770ca88532ea37764736f6c634300080e0033a2646970667358221220fa6f32da412d267caf0770b2ca5ea91f9d3249dbc34fe8a17842efd955734f5164736f6c634300080e0033",
  "immutableReferences": {},
  "source": "// SPDX-License-Identifier: MIT\n\npragma solidity >= 0.4.24;\n\n// To imports files, the path is relative to the file\n// it must be in the same folder, as example:\n// import \"./SimpleStorage.sol\";\nimport \"./SimpleStorage.sol\";\n\ncontract FactoryPattern {\n    SimpleStorage[] public simpleStructArray; \n\n    function createSimpleStorageContract() public  {\n        // When we initialize a variable we need to specify the type\n        SimpleStorage simpleStruct = new SimpleStorage();\n        simpleStructArray.push(simpleStruct);\n    }\n \n    // function storageFStore(uint256 _simpleStorageIndex, uint256 _simpleStorageNumber) public {\n    //     // We can call the functions of the contract\n    //     SimpleStorage(address(simpleStructArray[_simpleStorageIndex])).store(_simpleStorageNumber);\n    // }\n\n    // function storageFSRetrieve(uint256 _simpleStorageIndex) public view returns (uint256) {\n    //     // We can call the functions of the contract\n    //     return SimpleStorage(address(simpleStructArray[_simpleStorageIndex])).retrieve();\n    // }\n\n    function storageFStore(uint256 _simpleStorageIndex, uint256 _simpleStorageNumber) public {\n        // We can call the functions of the contract\n        simpleStructArray[_simpleStorageIndex].store(_simpleStorageNumber);\n    }\n\n    function storageFSRetrieve(uint256 _simpleStorageIndex) public view returns (uint256) {\n        // We can call the functions of the contract\n        return simpleStructArray[_simpleStorageIndex].retrieve();\n    }\n}\n",
  "sourcePath": "/home/awadallak/dev/apps/go/src/github.com/aawadallak/blockchain/contracts/storages/factoryPattern.sol",
  "compiler": {
    "name": "solc",
    "version": "0.8.14+commit.80d49f37.Emscripten.clang"
  },
  "schemaVersion": "3.4.7",
  "updatedAt": "2022-06-05T19:21:31.456Z",
  "devdoc": {
    "kind": "dev",
    "methods": {},
    "version": 1
  },
  "userdoc": {
    "kind": "user",
    "methods": {},
    "version": 1
  }
}