{
  "contractName": "SimpleStorage",
  "abi": [
    {
      "inputs": [
        {
          "internalType": "uint256",
          "name": "_favoriteNumber",
          "type": "uint256"
        }
      ],
      "name": "store",
      "outputs": [],
      "stateMutability": "nonpayable",
      "type": "function"
    },
    {
      "inputs": [],
      "name": "retrieve",
      "outputs": [
        {
          "internalType": "uint256",
          "name": "",
          "type": "uint256"
        }
      ],
      "stateMutability": "view",
      "type": "function"
    },
    {
      "inputs": [
        {
          "internalType": "uint256",
          "name": "_input",
          "type": "uint256"
        }
      ],
      "name": "mul",
      "outputs": [
        {
          "internalType": "uint256",
          "name": "",
          "type": "uint256"
        }
      ],
      "stateMutability": "pure",
      "type": "function"
    }
  ],
  "bytecode": "0x608060405234801561001057600080fd5b50610229806100206000396000f3fe608060405234801561001057600080fd5b50600436106100415760003560e01c8063131e2f18146100465780632e64cec1146100765780636057361d14610094575b600080fd5b610060600480360381019061005b9190610113565b6100b0565b60405161006d919061014f565b60405180910390f35b61007e6100c5565b60405161008b919061014f565b60405180910390f35b6100ae60048036038101906100a99190610113565b6100ce565b005b600081826100be9190610199565b9050919050565b60008054905090565b8060008190555050565b600080fd5b6000819050919050565b6100f0816100dd565b81146100fb57600080fd5b50565b60008135905061010d816100e7565b92915050565b600060208284031215610129576101286100d8565b5b6000610137848285016100fe565b91505092915050565b610149816100dd565b82525050565b60006020820190506101646000830184610140565b92915050565b7f4e487b7100000000000000000000000000000000000000000000000000000000600052601160045260246000fd5b60006101a4826100dd565b91506101af836100dd565b9250817fffffffffffffffffffffffffffffffffffffffffffffffffffffffffffffffff04831182151516156101e8576101e761016a565b5b82820290509291505056fea2646970667358221220cc5cfee2dc895efb29dafa4a214c98333cfd0fa6dbe95650d770ca88532ea37764736f6c634300080e0033",
  "immutableReferences": {},
  "source": "pragma solidity >= 0.4.24 <0.9.0;\n\n/*\n    uint storedData2 = 0;  \n    bool storedData = false;\n    string storedData1 = \"\"; \n    int storedData3 = 0;\n    address storedData4 = 0x69b581Fa730D9bd817a412DCF2fA5531786c3c9e;  // this is a ETH ADDRESS\n    bytes32 storedData5 = \"cat\"; \n*/\n\n// A contract is similiar a class in JAVA\ncontract SimpleStorage{\n    // If we didnt call it public\n    // automatically it will be Internal \n    uint256 favoriteNumber; \n\n    // Public variable also have view functions\n\n    // this is public because we want to call it from outside the contract\n    // virtual means that it can be overwritten by the child contract\n    function store(uint256 _favoriteNumber) public virtual {\n        favoriteNumber = _favoriteNumber;\n    }\n\n    // View and Pure are functions that dont change the state of the contract\n    function retrieve() public view returns (uint256) {\n        return favoriteNumber;\n    }\n\n    // Pure functions basically dont change the state of the contract\n    // but they can be used to check if a value is valid \n    // or if a value is in a certain range\n    // and execute some logic\n    // and it can recieve input\n    function mul(uint256 _input) public pure returns (uint256) {\n        return _input * _input;\n    }\n}\n\n/*\n    Internal functions are functions that are visible to the contract but not to the outside world\n    External functions are functions that are visible to other contracts\n    Public functions are functions that are visible to the outside world\n    Private functions are functions that are visible only to the contract\n*/",
  "sourcePath": "/home/awadallak/dev/apps/go/src/github.com/aawadallak/blockchain/contracts/storages/SimpleStorage.sol",
  "compiler": {
    "name": "solc",
    "version": "0.8.14+commit.80d49f37.Emscripten.clang"
  },
  "schemaVersion": "3.4.7",
  "updatedAt": "2022-06-05T19:21:31.453Z",
  "devdoc": {
    "kind": "dev",
    "methods": {},
    "version": 1
  },
  "userdoc": {
    "kind": "user",
    "methods": {},
    "version": 1
  }
}