{
  "contractName": "SimpleStruct",
  "abi": [
    {
      "inputs": [
        {
          "internalType": "uint256",
          "name": "",
          "type": "uint256"
        }
      ],
      "name": "people",
      "outputs": [
        {
          "internalType": "uint256",
          "name": "age",
          "type": "uint256"
        },
        {
          "internalType": "string",
          "name": "name",
          "type": "string"
        }
      ],
      "stateMutability": "view",
      "type": "function"
    },
    {
      "inputs": [
        {
          "internalType": "string",
          "name": "",
          "type": "string"
        }
      ],
      "name": "peopleMap",
      "outputs": [
        {
          "internalType": "uint256",
          "name": "age",
          "type": "uint256"
        },
        {
          "internalType": "string",
          "name": "name",
          "type": "string"
        }
      ],
      "stateMutability": "view",
      "type": "function"
    },
    {
      "inputs": [
        {
          "internalType": "uint256",
          "name": "_age",
          "type": "uint256"
        },
        {
          "internalType": "string",
          "name": "_name",
          "type": "string"
        }
      ],
      "name": "addPerson",
      "outputs": [],
      "stateMutability": "nonpayable",
      "type": "function"
    },
    {
      "inputs": [
        {
          "internalType": "string",
          "name": "_name",
          "type": "string"
        },
        {
          "internalType": "uint256",
          "name": "_age",
          "type": "uint256"
        }
      ],
      "name": "adddPersonToMap",
      "outputs": [],
      "stateMutability": "nonpayable",
      "type": "function"
    },
    {
      "inputs": [
        {
          "internalType": "string",
          "name": "_name",
          "type": "string"
        }
      ],
      "name": "findPersonByName",
      "outputs": [
        {
          "components": [
            {
              "internalType": "uint256",
              "name": "age",
              "type": "uint256"
            },
            {
              "internalType": "string",
              "name": "name",
              "type": "string"
            }
          ],
          "internalType": "struct SimpleStruct.People",
          "name": "",
          "type": "tuple"
        }
      ],
      "stateMutability": "view",
      "type": "function"
    },
    {
      "inputs": [
        {
          "internalType": "string",
          "name": "_name",
          "type": "string"
        }
      ],
      "name": "findPerson",
      "outputs": [
        {
          "components": [
            {
              "internalType": "uint256",
              "name": "age",
              "type": "uint256"
            },
            {
              "internalType": "string",
              "name": "name",
              "type": "string"
            }
          ],
          "internalType": "struct SimpleStruct.People",
          "name": "",
          "type": "tuple"
        }
      ],
      "stateMutability": "view",
      "type": "function"
    }
  ],
  "bytecode": "0x608060405234801561001057600080fd5b50610c08806100206000396000f3fe608060405234801561001057600080fd5b50600436106100625760003560e01c80631a94ca2d1461006757806350f460331461009757806392fc46ae146100c75780639e7a13ad146100f8578063bc832d4e14610129578063fcf2b7ac14610145575b600080fd5b610081600480360381019061007c91906107d0565b610161565b60405161008e91906108f7565b60405180910390f35b6100b160048036038101906100ac91906107d0565b610235565b6040516100be91906108f7565b60405180910390f35b6100e160048036038101906100dc91906107d0565b61036d565b6040516100ef929190610972565b60405180910390f35b610112600480360381019061010d91906109ce565b61042f565b604051610120929190610972565b60405180910390f35b610143600480360381019061013e91906109fb565b6104eb565b005b61015f600480360381019061015a9190610a57565b610558565b005b6101696105b9565b6001826040516101799190610aef565b9081526020016040518091039020604051806040016040529081600082015481526020016001820180546101ac90610b35565b80601f01602080910402602001604051908101604052809291908181526020018280546101d890610b35565b80156102255780601f106101fa57610100808354040283529160200191610225565b820191906000526020600020905b81548152906001019060200180831161020857829003601f168201915b5050505050815250509050919050565b61023d6105b9565b600060018360405161024f9190610aef565b908152602001604051809103902060000154036102a1576040517f08c379a000000000000000000000000000000000000000000000000000000000815260040161029890610bb2565b60405180910390fd5b6001826040516102b19190610aef565b9081526020016040518091039020604051806040016040529081600082015481526020016001820180546102e490610b35565b80601f016020809104026020016040519081016040528092919081815260200182805461031090610b35565b801561035d5780601f106103325761010080835404028352916020019161035d565b820191906000526020600020905b81548152906001019060200180831161034057829003601f168201915b5050505050815250509050919050565b6001818051602081018201805184825260208301602085012081835280955050505050506000915090508060000154908060010180546103ac90610b35565b80601f01602080910402602001604051908101604052809291908181526020018280546103d890610b35565b80156104255780601f106103fa57610100808354040283529160200191610425565b820191906000526020600020905b81548152906001019060200180831161040857829003601f168201915b5050505050905082565b6000818154811061043f57600080fd5b906000526020600020906002020160009150905080600001549080600101805461046890610b35565b80601f016020809104026020016040519081016040528092919081815260200182805461049490610b35565b80156104e15780601f106104b6576101008083540402835291602001916104e1565b820191906000526020600020905b8154815290600101906020018083116104c457829003601f168201915b5050505050905082565b600060405180604001604052808481526020018381525090806001815401808255809150506001900390600052602060002090600202016000909190919091506000820151816000015560208201518160010190805190602001906105519291906105d3565b5050505050565b60405180604001604052808281526020018381525060018360405161057d9190610aef565b90815260200160405180910390206000820151816000015560208201518160010190805190602001906105b19291906105d3565b509050505050565b604051806040016040528060008152602001606081525090565b8280546105df90610b35565b90600052602060002090601f0160209004810192826106015760008555610648565b82601f1061061a57805160ff1916838001178555610648565b82800160010185558215610648579182015b8281111561064757825182559160200191906001019061062c565b5b5090506106559190610659565b5090565b5b8082111561067257600081600090555060010161065a565b5090565b6000604051905090565b600080fd5b600080fd5b600080fd5b600080fd5b6000601f19601f8301169050919050565b7f4e487b7100000000000000000000000000000000000000000000000000000000600052604160045260246000fd5b6106dd82610694565b810181811067ffffffffffffffff821117156106fc576106fb6106a5565b5b80604052505050565b600061070f610676565b905061071b82826106d4565b919050565b600067ffffffffffffffff82111561073b5761073a6106a5565b5b61074482610694565b9050602081019050919050565b82818337600083830152505050565b600061077361076e84610720565b610705565b90508281526020810184848401111561078f5761078e61068f565b5b61079a848285610751565b509392505050565b600082601f8301126107b7576107b661068a565b5b81356107c7848260208601610760565b91505092915050565b6000602082840312156107e6576107e5610680565b5b600082013567ffffffffffffffff81111561080457610803610685565b5b610810848285016107a2565b91505092915050565b6000819050919050565b61082c81610819565b82525050565b600081519050919050565b600082825260208201905092915050565b60005b8381101561086c578082015181840152602081019050610851565b8381111561087b576000848401525b50505050565b600061088c82610832565b610896818561083d565b93506108a681856020860161084e565b6108af81610694565b840191505092915050565b60006040830160008301516108d26000860182610823565b50602083015184820360208601526108ea8282610881565b9150508091505092915050565b6000602082019050818103600083015261091181846108ba565b905092915050565b61092281610819565b82525050565b600082825260208201905092915050565b600061094482610832565b61094e8185610928565b935061095e81856020860161084e565b61096781610694565b840191505092915050565b60006040820190506109876000830185610919565b81810360208301526109998184610939565b90509392505050565b6109ab81610819565b81146109b657600080fd5b50565b6000813590506109c8816109a2565b92915050565b6000602082840312156109e4576109e3610680565b5b60006109f2848285016109b9565b91505092915050565b60008060408385031215610a1257610a11610680565b5b6000610a20858286016109b9565b925050602083013567ffffffffffffffff811115610a4157610a40610685565b5b610a4d858286016107a2565b9150509250929050565b60008060408385031215610a6e57610a6d610680565b5b600083013567ffffffffffffffff811115610a8c57610a8b610685565b5b610a98858286016107a2565b9250506020610aa9858286016109b9565b9150509250929050565b600081905092915050565b6000610ac982610832565b610ad38185610ab3565b9350610ae381856020860161084e565b80840191505092915050565b6000610afb8284610abe565b915081905092915050565b7f4e487b7100000000000000000000000000000000000000000000000000000000600052602260045260246000fd5b60006002820490506001821680610b4d57607f821691505b602082108103610b6057610b5f610b06565b5b50919050565b7f506572736f6e206e6f7420666f756e6400000000000000000000000000000000600082015250565b6000610b9c601083610928565b9150610ba782610b66565b602082019050919050565b60006020820190508181036000830152610bcb81610b8f565b905091905056fea2646970667358221220662e4f8e768e2893b56ead6110f95cff5bc7b81cf61cbe52eef4ed2671e55a1664736f6c634300080e0033",
  "immutableReferences": {},
  "source": "// SPDX-License-Identifier:MIT    \npragma solidity >=0.5.0 <0.9.0;\n\ncontract SimpleStruct {\n    struct People { \n        uint256 age;\n        string name;\n    }\n\n    // Example how to use a struct with a constructor\n    // People public person = People({age: 0, name: \"\"}); \n\n\n    // We can have Dynamic Arrays as well as Static Arrays\n    // Dynamic Arrays are arrays that can grow and shrink\n    // Static Arrays are arrays that can only grow\n\n    // Example of people array\n    People[] public people;\n\n    // What is the difference between memory and calldata\n    function addPerson(uint256 _age, string memory _name) public {\n        people.push(People({age: _age, name: _name}));\n    }\n\n    // Example of a map\n    mapping(string => People) public peopleMap;\n\n    function adddPersonToMap(string memory _name, uint256 _age) public {\n        peopleMap[_name] = People({age: _age, name: _name});\n    }\n\n    //find a person in the map and check if it exists\n    function findPersonByName(string memory _name) public view returns (People memory) {\n        require(peopleMap[_name].age != 0, \"Person not found\");\n        return peopleMap[_name];\n    }\n\n    function findPerson(string memory _name) public view returns (People memory) {\n        return peopleMap[_name];\n    }\n}\n",
  "sourcePath": "/home/awadallak/dev/apps/go/src/github.com/aawadallak/blockchain/contracts/storages/SimpleStructs.sol",
  "compiler": {
    "name": "solc",
    "version": "0.8.14+commit.80d49f37.Emscripten.clang"
  },
  "schemaVersion": "3.4.7",
  "updatedAt": "2022-06-05T19:21:31.454Z",
  "devdoc": {
    "kind": "dev",
    "methods": {},
    "version": 1
  },
  "userdoc": {
    "kind": "user",
    "methods": {},
    "version": 1
  }
}